{
  "abi": [
    {
      "inputs": [
        {
          "internalType": "bytes32",
          "name": "domain",
          "type": "bytes32"
        }
      ],
      "name": "DomainIsNotRegistered",
      "type": "error"
    },
    {
      "inputs": [
        {
          "internalType": "bytes32",
          "name": "domain",
          "type": "bytes32"
        }
      ],
      "name": "DomainIsRegistered",
      "type": "error"
    },
    {
      "inputs": [],
      "name": "IsEmpty",
      "type": "error"
    },
    {
      "inputs": [],
      "name": "IsEqualToZero",
      "type": "error"
    },
    {
      "inputs": [],
      "name": "IsNull",
      "type": "error"
    },
    {
      "inputs": [
        {
          "internalType": "address",
          "name": "callerAddress",
          "type": "address"
        },
        {
          "internalType": "string",
          "name": "expectedCallers",
          "type": "string"
        }
      ],
      "name": "Unauthorised",
      "type": "error"
    },
    {
      "anonymous": false,
      "inputs": [
        {
          "indexed": true,
          "internalType": "bytes",
          "name": "domain",
          "type": "bytes"
        }
      ],
      "name": "Deregister",
      "type": "event"
    },
    {
      "anonymous": false,
      "inputs": [
        {
          "indexed": true,
          "internalType": "bytes32",
          "name": "domain",
          "type": "bytes32"
        },
        {
          "indexed": false,
          "internalType": "address",
          "name": "optimismAddress",
          "type": "address"
        }
      ],
      "name": "NewAddress",
      "type": "event"
    },
    {
      "anonymous": false,
      "inputs": [
        {
          "indexed": true,
          "internalType": "bytes32",
          "name": "domain",
          "type": "bytes32"
        },
        {
          "indexed": false,
          "internalType": "address",
          "name": "controllerAddress",
          "type": "address"
        }
      ],
      "name": "NewController",
      "type": "event"
    },
    {
      "anonymous": false,
      "inputs": [
        {
          "indexed": true,
          "internalType": "bytes32",
          "name": "domain",
          "type": "bytes32"
        },
        {
          "indexed": false,
          "internalType": "address",
          "name": "ownerAddress",
          "type": "address"
        }
      ],
      "name": "NewOwner",
      "type": "event"
    },
    {
      "anonymous": false,
      "inputs": [
        {
          "indexed": true,
          "internalType": "bytes32",
          "name": "domain",
          "type": "bytes32"
        },
        {
          "indexed": false,
          "internalType": "uint256",
          "name": "ttl",
          "type": "uint256"
        }
      ],
      "name": "NewTTL",
      "type": "event"
    },
    {
      "anonymous": false,
      "inputs": [
        {
          "indexed": true,
          "internalType": "bytes",
          "name": "domain",
          "type": "bytes"
        },
        {
          "indexed": false,
          "internalType": "address",
          "name": "ownerAddress",
          "type": "address"
        },
        {
          "indexed": false,
          "internalType": "address",
          "name": "controllerAddress",
          "type": "address"
        },
        {
          "indexed": false,
          "internalType": "address",
          "name": "optimismAddress",
          "type": "address"
        },
        {
          "indexed": false,
          "internalType": "uint256",
          "name": "ttl",
          "type": "uint256"
        }
      ],
      "name": "Register",
      "type": "event"
    },
    {
      "inputs": [
        {
          "internalType": "bytes32",
          "name": "_domain",
          "type": "bytes32"
        }
      ],
      "name": "deregister",
      "outputs": [],
      "stateMutability": "nonpayable",
      "type": "function"
    },
    {
      "inputs": [
        {
          "internalType": "bytes32",
          "name": "_domain",
          "type": "bytes32"
        }
      ],
      "name": "getAddress",
      "outputs": [
        {
          "internalType": "address",
          "name": "",
          "type": "address"
        }
      ],
      "stateMutability": "view",
      "type": "function"
    },
    {
      "inputs": [
        {
          "internalType": "bytes32",
          "name": "_domain",
          "type": "bytes32"
        }
      ],
      "name": "getController",
      "outputs": [
        {
          "internalType": "address",
          "name": "",
          "type": "address"
        }
      ],
      "stateMutability": "view",
      "type": "function"
    },
    {
      "inputs": [
        {
          "internalType": "bytes32",
          "name": "_domain",
          "type": "bytes32"
        }
      ],
      "name": "getOwner",
      "outputs": [
        {
          "internalType": "address",
          "name": "",
          "type": "address"
        }
      ],
      "stateMutability": "view",
      "type": "function"
    },
    {
      "inputs": [
        {
          "internalType": "bytes32",
          "name": "_domain",
          "type": "bytes32"
        }
      ],
      "name": "getTTL",
      "outputs": [
        {
          "internalType": "uint256",
          "name": "",
          "type": "uint256"
        }
      ],
      "stateMutability": "view",
      "type": "function"
    },
    {
      "inputs": [
        {
          "internalType": "bytes32",
          "name": "_domain",
          "type": "bytes32"
        },
        {
          "internalType": "uint256",
          "name": "_ttl",
          "type": "uint256"
        }
      ],
      "name": "register",
      "outputs": [],
      "stateMutability": "nonpayable",
      "type": "function"
    },
    {
      "inputs": [
        {
          "internalType": "bytes32",
          "name": "_domain",
          "type": "bytes32"
        },
        {
          "internalType": "address",
          "name": "_controllerAddress",
          "type": "address"
        },
        {
          "internalType": "address",
          "name": "_optimismAddress",
          "type": "address"
        },
        {
          "internalType": "uint256",
          "name": "_ttl",
          "type": "uint256"
        }
      ],
      "name": "registerWithParameters",
      "outputs": [],
      "stateMutability": "nonpayable",
      "type": "function"
    },
    {
      "inputs": [
        {
          "internalType": "bytes32",
          "name": "_domain",
          "type": "bytes32"
        }
      ],
      "name": "resolve",
      "outputs": [
        {
          "internalType": "address",
          "name": "",
          "type": "address"
        }
      ],
      "stateMutability": "view",
      "type": "function"
    },
    {
      "inputs": [
        {
          "internalType": "bytes32",
          "name": "_domain",
          "type": "bytes32"
        },
        {
          "internalType": "address",
          "name": "_optimismAddress",
          "type": "address"
        }
      ],
      "name": "setAddress",
      "outputs": [],
      "stateMutability": "nonpayable",
      "type": "function"
    },
    {
      "inputs": [
        {
          "internalType": "bytes32",
          "name": "_domain",
          "type": "bytes32"
        },
        {
          "internalType": "address",
          "name": "_controllerAddress",
          "type": "address"
        }
      ],
      "name": "setController",
      "outputs": [],
      "stateMutability": "nonpayable",
      "type": "function"
    },
    {
      "inputs": [
        {
          "internalType": "bytes32",
          "name": "_domain",
          "type": "bytes32"
        },
        {
          "internalType": "address",
          "name": "_ownerAddress",
          "type": "address"
        }
      ],
      "name": "setOwner",
      "outputs": [],
      "stateMutability": "nonpayable",
      "type": "function"
    },
    {
      "inputs": [
        {
          "internalType": "bytes32",
          "name": "_domain",
          "type": "bytes32"
        },
        {
          "internalType": "uint256",
          "name": "_ttl",
          "type": "uint256"
        }
      ],
      "name": "setTTL",
      "outputs": [],
      "stateMutability": "nonpayable",
      "type": "function"
    }
  ],
  "bytecode": {
    "object": "0x608060405234801561001057600080fd5b5061089b806100206000396000f3fe608060405234801561001057600080fd5b50600436106100b45760003560e01c80638f1815b2116100715780638f1815b2146101375780639c0a36a01461014a578063ca446dd91461016b578063d31569051461017e578063deb931a214610191578063ff3617f8146101a457600080fd5b806320813154146100b957806321f8a721146100ce5780635b0fc9c3146100fe5780635c23bdf5146100ce5780635cc5dc20146101115780636a20ccc514610124575b600080fd5b6100cc6100c736600461079e565b6101b7565b005b6100e16100dc36600461079e565b6101ea565b6040516001600160a01b0390911681526020015b60405180910390f35b6100cc61010c3660046107d3565b61021d565b6100cc61011f3660046107ff565b6102a4565b6100cc610132366004610843565b610357565b6100e161014536600461079e565b6103c0565b61015d61015836600461079e565b6103f3565b6040519081526020016100f5565b6100cc6101793660046107d3565b61041d565b6100cc61018c3660046107d3565b610496565b6100e161019f36600461079e565b61050f565b6100cc6101b2366004610843565b61053f565b6101c0816105e7565b6101c981610608565b6101d28161063f565b6000908152600160205260409020805460ff19169055565b60006101f5826105e7565b6101fe82610608565b506000908152602081905260409020600201546001600160a01b031690565b610226826105e7565b61022f82610608565b61023881610696565b6102418261063f565b6000828152602081815260409182902080546001600160a01b0319166001600160a01b038516908117909155915191825283917f52cfe144bbaaed60759c6425b5bdfcebf7736889a75f9de7cd4cf30c7a6b807891015b60405180910390a25050565b6102ad846105e7565b6102b6816106bd565b6102bf846106de565b6000848152600160208181526040808420805460ff19168417905580516080810182523381526001600160a01b039788168184019081529688168183019081526060820196875298855291849052909220915182549086166001600160a01b03199182161783559351908201805491861691851691909117905593516002850180549190941692169190911790915551600390910155565b610360826105e7565b610369816106bd565b61037282610608565b61037b82610711565b60008281526020818152604091829020600301839055905182815283917f5993c5fd26d2dd4ded5aee8b874ed9fba62ddb152e774d09d5d3e304f6eafde79101610298565b60006103cb826105e7565b6103d482610608565b506000908152602081905260409020600101546001600160a01b031690565b60006103fe826105e7565b61040782610608565b5060009081526020819052604090206003015490565b610426826105e7565b61042f82610608565b61043882610711565b6000828152602081815260409182902060020180546001600160a01b0319166001600160a01b038516908117909155915191825283917fb5ba698ccb27130c5be1f6dbf65af98e06307efa244343d7adcf066d16898fa69101610298565b61049f826105e7565b6104a882610608565b6104b18261063f565b6000828152602081815260409182902060010180546001600160a01b0319166001600160a01b038516908117909155915191825283917fe5108446a6097aab57fd36f346a515a78fddefa87d81662d44e0d7a463f920959101610298565b600061051a826105e7565b61052382610608565b506000908152602081905260409020546001600160a01b031690565b610548826105e7565b610551816106bd565b61055a826106de565b6000828152600160208181526040808420805460ff19168417905580516080810182523380825281840181815282840191825260608301978852978652928590529320925183546001600160a01b03199081166001600160a01b03928316178555955192840180548716938216939093179092555160028301805490951691161790925551600390910155565b80610605576040516348e3fac360e01b815260040160405180910390fd5b50565b60008181526001602052604090205460ff166106055760405163638f465360e01b8152600481018290526024015b60405180910390fd5b6000818152602081905260409020546001600160a01b031633146106055760408051634245467360e11b81523360048201526024810191909152600560448201526437bbb732b960d91b6064820152608401610636565b6001600160a01b03811661060557604051630d792e3d60e41b815260040160405180910390fd5b806000036106055760405163be9c5bef60e01b815260040160405180910390fd5b60008181526001602052604090205460ff161561060557604051637815445160e11b815260048101829052602401610636565b6000818152602081905260409020546001600160a01b0316331480159061075257506000818152602081905260409020600101546001600160a01b03163314155b156106055760408051634245467360e11b81523360048201526024810191909152601360448201527237bbb732b91037b91031b7b73a3937b63632b960691b6064820152608401610636565b6000602082840312156107b057600080fd5b5035919050565b80356001600160a01b03811681146107ce57600080fd5b919050565b600080604083850312156107e657600080fd5b823591506107f6602084016107b7565b90509250929050565b6000806000806080858703121561081557600080fd5b84359350610825602086016107b7565b9250610833604086016107b7565b9396929550929360600135925050565b6000806040838503121561085657600080fd5b5050803592602090910135915056fea2646970667358221220de71fdd652b815eb56f5da988098a85f8c5ad1b4b49a239e0d38b634cb4875dd64736f6c634300080e0033",
    "linkReferences": {}
  },
  "methodIdentifiers": {
    "deregister(bytes32)": "20813154",
    "getAddress(bytes32)": "21f8a721",
    "getController(bytes32)": "8f1815b2",
    "getOwner(bytes32)": "deb931a2",
    "getTTL(bytes32)": "9c0a36a0",
    "register(bytes32,uint256)": "ff3617f8",
    "registerWithParameters(bytes32,address,address,uint256)": "5cc5dc20",
    "resolve(bytes32)": "5c23bdf5",
    "setAddress(bytes32,address)": "ca446dd9",
    "setController(bytes32,address)": "d3156905",
    "setOwner(bytes32,address)": "5b0fc9c3",
    "setTTL(bytes32,uint256)": "6a20ccc5"
  },
  "id": 1
}